:100000000C9434000C9449000C9449000C94490061
:100010000C9449000C9449000C9449000C9449003C
:100020000C9449000C9449000C9449000C9449002C
:100030000C9449000C9449000C9449000C9449001C
:100040000C9449000C9449000C9449000C9449000C
:100050000C9449000C9449000C9449000C944900FC
:100060000C9449000C94490011241FBECFEFD8E036
:10007000DEBFCDBF11E0A0E0B1E0E2E9F2E002C0F6
:1000800005900D92A232B107D9F70E9436010C9467
:1000900047010C94000080FF02C0419A01C04198C2
:1000A00081FF02C0429A01C0429882FF02C02A9A90
:1000B00001C02A9883FF02C0299A01C02998589A42
:1000C00085E08A95F1F7000058980895CF93C82FDE
:1000D0005998000082958F700E944B008C2F8F7072
:1000E0000E944B00C150C23028F48FE39FE101977A
:1000F000F1F704C087EC90E00197F1F700C0000031
:10010000CF91089558985998419842982A982998DB
:10011000509A519A399A3A9A229A219A2FEF89EF56
:1001200090E0215080409040E1F700C0000083E063
:100130000E944B008FE19EE40197F1F700C00000A0
:1001400083E00E944B008FE891E00197F1F700C037
:10015000000083E00E944B008FE891E00197F1F7E7
:1001600000C0000082E00E944B008FE891E0019700
:10017000F1F700C0000088E20E9466008CE00E9457
:10018000660081E00E94660086E00E94660080E8CA
:100190000C946600CF93C82F599A000085958595D9
:1001A000859585950E944B008C2F8F700E944B0087
:1001B00087EC90E00197F1F700C00000CF9108951F
:1001C000CF93DF93EC018991882319F00E94CA0034
:1001D000FACFDF91CF910895623039F050F063305B
:1001E00031F0643031F48D5A05C0815C03C08D5EFE
:1001F00001C0815080680C946600882311F08FE064
:1002000001C08CE00C94660080EC0C94660081E0E8
:100210000E9466008FED9EE20197F1F700C000009A
:10022000089582E00E9466008FE39FE10197F1F755
:1002300000C0000008950F931F93CF93DF93883081
:1002400080F48B01880F880F880F805C0E94660005
:10025000E801085F1F4F89910E94CA00C017D107AB
:10026000D1F7DF91CF911F910F9108950E948200E5
:100270000E94070180E091E00E94E0000E940401DA
:1002800081E191E00E94E00080E090E00895F89420
:02029000FFCF9E
:10029200202020486F6C61204D756E646F202020F5
:1002A20000202A526F626F746963614564752A2067
:0202B20020002A
:00000001FF
